:100000000C944A000C9469000C9469000C946900EB
:100010000C9469000C9469000C9469000C946900BC
:100020000C9469000C9469000C9469000C946900AC
:100030000C9469000C9469000C9469000C9469009C
:100040000C94D4010C9469000C9469000C94690020
:100050000C9469000C9469000C9469000C9469007C
:100060000C9469000C94E5010C9469000C946900EF
:100070000C9469000C9469000C9469000C9469005C
:100080000C948D000C9469000C94C3000C946900CE
:100090000C94690011241FBECFEFD0E1DEBFCDBFAD
:1000A00011E0A0E0B1E0E2E7F0E100E00BBF02C048
:1000B00007900D92A030B107D9F713E0A0E0B1E0AE
:1000C00001C01D92A832B107E1F70E945C040C94B4
:1000D00037080C940000E9ECF0E088E1808310928E
:1000E000CD0080E18093CC0086E08093CA008081BF
:1000F0008068808310925501109254011092020181
:10010000109201011092A9011092A80110925701BA
:10011000109256011092530108951F920F920FB63C
:100120000F920BB60F9211248F939F93EF93FF932F
:1001300080915401909155010196909355018093BF
:1001400054018035910521F410925501109254010B
:10015000E0915401F09155018091010190910201CB
:10016000E817F90729F08091CE00ED5FFE4F8083FC
:10017000FF91EF919F918F910F900BBE0F900FBE4B
:100180000F901F9018951F920F920FB60F920BB6FB
:100190000F9211242F933F938F939F93EF93FF938D
:1001A00020915601309157018091A8019091A901A9
:1001B00082179307B9F0C901019690935701809374
:1001C00056018035910521F4109257011092560185
:1001D000E0915601F0915701E85AFE4F80818093DB
:1001E000CE0007C08091C9008F7B8093C900109218
:1001F0005301FF91EF919F918F913F912F910F901C
:100200000BBE0F900FBE0F901F90189520915601B6
:10021000309157018091A8019091A901821793070D
:10022000F1F081E0809353018091C9008064809354
:10023000C900C901019690935701809356018035FA
:10024000910521F41092570110925601E091560148
:10025000F0915701E85AFE4F80818093CE000895B7
:10026000282F8091A8019091A90101969093A9014E
:100270008093A8018035910521F41092A901109274
:10028000A801E091A801F091A901809156019091F7
:100290005701E817F90719F0E85AFE4F20838091BB
:1002A0005301882311F40E9406010895982F80912C
:1002B000C80085FFFCCF9093CE000895DC0129C0D3
:1002C0008091A8019091A90101969093A901809332
:1002D000A8018035910521F41092A9011092A8017E
:1002E000E091A801F091A9018091560190915701E8
:1002F000E817F90729F0E85AFE4F8D91808309C06D
:100300001092A9011092A801109257011092560163
:1003100003C08C918823A1F680915301882311F4A6
:100320000E94060108958091C8008074089540E0FD
:100330002091540130915501809101019091020169
:100340002817390709F041E0842F089580910101B1
:1003500090910201019690930201809301018035F2
:10036000910521F41092020110920101E091010126
:10037000F0910201ED5FFE4F8081089502C08091EF
:10038000CE008091C80087FDFACF08951092BA017F
:100390001092AC011092AB0182E080936E008BE072
:1003A00084BD89EF87BD08951F920F920FB60F92FB
:1003B00011248F938091BA018F5F8093BA018F913E
:1003C0000F900FBE0F901F9018951F920F920FB6AF
:1003D0000F920BB60F9211242F933F934F938F934D
:1003E0009F93EF93FF93E091CA01F0E02091780092
:1003F00040917900942F80E030E0822B932BEE0F18
:10040000FF1FED52FE4F918380838091CA018F5F61
:100410008093CA018091CA01882311F01092CA0109
:10042000E091CA01F0E0E453FE4F80818064809344
:100430007C0080917A00806480937A00FF91EF9134
:100440009F918F914F913F912F910F900BBE0F90E5
:100450000FBE0F901F901895099A0A9A0B9A08954B
:100460001092CA011092CC0181E08093CD0182E00C
:100470008093CE01AAE7B0E080E88C938C918760EE
:100480008C938C9188608C938091CA01ECECF1E0A4
:10049000E80FF11D8081806480937C008C918064E2
:1004A0008C9308958091D201882379F42091C4011E
:1004B0003091C5018091C8019091C9012817390771
:1004C00098F481E08093D2010895813069F42091FD
:1004D000C4013091C5018091C8019091C9012817CC
:1004E000390710F01092D20108958091B00188234D
:1004F00031F08130D1F41092B001769A08952091B4
:10050000B7012F5F2093B7018091B601821728F0C1
:10051000769881E08093B001089530E090E00496F1
:100520008217930714F41092B70108956E9A1092EF
:10053000B70181E08093B6011092B001089580B1B7
:1005400080B180788093AE010895169A179A80B191
:1005500080B180788093AE0108958091D20181307E
:1005600021F485E08093BF0138C08091D50190913E
:10057000D601039730F084E08093BF011092DE0132
:1005800007C08091DE01882359F483E08093BF0186
:100590008AE08093DF011092AA011092D1011DC060
:1005A0008091820290918302892B41F082E08093B6
:1005B000BF0110928302109282020FC081E08093EB
:1005C000BF018091C6018093DF018091C0018093BB
:1005D000AA018091C2018093D1018091BF018093D3
:1005E000B601089584B714BE843089F0853028F4AC
:1005F000813041F08230A1F408C0883051F0803160
:1006000079F40BC010920001089581E003C082E0EC
:1006100001C083E080930001089584E0809300018D
:10062000089587E090E090932503809324038091C0
:10063000BF0190E00E940F058091C4019091C50117
:100640000E940F058091DD0190E00E940F058091CE
:10065000DC0190E00E940F058091AD0190E00E94C6
:100660000F05809124039091250301979093250312
:10067000809324030E94B40408958091AB0190916B
:10068000AC0101969093AC018093AB0180519742ED
:1006900021F41092AC011092AB012091AB0130918A
:1006A000AC01C9016AE070E00E94B607892B09F02D
:1006B00046C0A895C90164E670E00E94B607892B80
:1006C000F1F48091B8019091B901892B51F080919A
:1006D000D5019091D60101969093D6018093D501D2
:1006E00004C01092D6011092D5018091D30190914F
:1006F000D4019093C5018093C4010E94AD02809102
:10070000AB019091AC0168EC70E00E94B607892BB8
:10071000B1F480B180B180788093AE010E947502FF
:100720006091AA014091D1018091DF0190E070E0D9
:1007300050E00E948F060E9452020E941103089509
:100740008091E001803509F061C08091E10186343B
:1007500009F05CC08091E2018C3409F057C08091AF
:10076000E301833589F48091E401803571F585E0FA
:1007700090E090938102809380020E9443069093C0
:10078000C9018093C8010895833409F03FC0809166
:10079000E4018035D9F585E090E090938102809363
:1007A00080020E9443069093BE018093BD01809118
:1007B0008002909181028F5F9F4F41F10E9443061A
:1007C0009093B9018093B80108958C34F9F485E0D1
:1007D00090E090938102809380021092D601109253
:1007E000D5010E9443069093C7018093C6010E94E1
:1007F00043069093C1018093C0010E9443069093E9
:10080000C3018093C20181E08093DE0108950E94BC
:1008100032068FEF9FEF9093D6018093D50184E24B
:100820008093840280E58093850286E4809386022B
:100830008CE48093870288E48093880289E4809323
:1008400089029CE290938A0222E320938B02909388
:100850008C0281E380938D0290938E0220938F020D
:100860009093900280910001805D809391028EE0D0
:1008700090E090932503809324030E94B40483E5C1
:100880008093880284E58093890287E090E09093CA
:100890002503809324031092B2011092B3011092A9
:1008A000B4011092B5011092CD011092CE011092B8
:1008B000CF011092D00108950E94F2021092BA0165
:1008C0001092AC011092AB0182E080936E008BE03D
:1008D00084BD89EF87BD6E9A1092B70181E0809345
:1008E000B6011092B0010E94A5020E942C020E9443
:1008F00030020E946B0084E190E09093BE018093EF
:10090000BD0181E090E09093B9018093B80183E04C
:1009100090E09093D6018093D50180E491E090938C
:10092000C9018093C8011092D2010E94AD0278944F
:1009300028E088E190E00FB6F894A89580936000D5
:100940000FBE209360000E9407048091BA018823A3
:1009500041F08091BA0181508093BA010E943D0319
:10096000F4CF0E945105F1CF80912403909125038B
:10097000FC01EC57FD4F2AE22083BC016F5F7F4FE3
:10098000709325036093240321E030E040E0DC0114
:1009900007C0F901EC57FD4F808148272F5F3F4F7B
:1009A0002A173B07B4F36C577D4F842F90E040E14A
:1009B00050E00E94110880912403909125039C012E
:1009C0002E5F3F4FFC01EC57FD4FA9014C575D4F87
:1009D00008C09081892F8156863010F49052908300
:1009E0003196E417F507A9F7F901EC57FD4F8DE0B3
:1009F0008083C9010196FC01EC57FD4F2AE020835A
:100A00000196FC01EC57FD4F10820196909325034F
:100A10008093240384E892E00E945E01089560912F
:100A20002403709125036C577D4F4AE050E00E94EB
:100A3000E8072091240330912503F901EC57FD4F7D
:100A4000A90181912F5F3F4F8823D1F7FA01EC571D
:100A5000FD4F8CE280833093250320932403089577
:100A600060912403709125036C577D4F4AE050E05C
:100A70000E94E8072091240330912503F901EC57E7
:100A8000FD4FA90181912F5F3F4F8823D1F7FA01D4
:100A9000EC57FD4F8CE28083309325032093240391
:100AA0000895CF93DF93CFEFDFEF98C00E94A601A8
:100AB000282F8432A9F480912603909127038F5F19
:100AC0009F4F49F08091820290918302019690930A
:100AD00083028093820210922703109226037EC025
:100AE0008D3019F08A3009F058C0A0912603B091DA
:100AF0002703A430B1050CF44BC0A930B105ECF1CB
:100B0000FD01E352FE4F80818A3209F06DC0E0EEB4
:100B1000F1E090E09D0123523E4F02C08191982761
:100B2000E217F307D9F7FD01E252FE4FE081EA3305
:100B300018F48E2F80530BC0E73418F48E2F875390
:100B400006C0E73610F080E002C08E2F8755A15214
:100B5000BE4FEC91EA3310F4E05309C0E73410F4CF
:100B6000E75305C0E73610F0E0E001C0E755829595
:100B7000807F8E2B981719F437C01697ACF58091AB
:100B80008202909183020196909383028093820265
:100B9000D0932703C093260321C080912603909110
:100BA00027033FEF8F3F9307C9F0FC01E052FE4F50
:100BB000208301969093270380932603803A910522
:100BC00069F4D0932703C093260380918202909109
:100BD0008302019690938302809382020E94970180
:100BE000882309F063CF03C00E94A003D1CFDF9117
:100BF000CF910895CF93DF9380912603909127039F
:100C00001816190664F584E20E94300185E40E94FA
:100C1000300185E40E94300185E40E94300185E4C2
:100C20000E94300185E40E9430018CE20E94300174
:100C3000C0E0D0E007C0FE01E052FE4F80810E947C
:100C4000300121968091260390912703C817D90778
:100C500094F38DE00E9430018AE00E943001DF9120
:100C6000CF9108958FEF9FEF9093270380932603F2
:100C700010928302109282028DE00E9430018AE07D
:100C80000E9430010895FF920F931F93CF93DF933B
:100C90002091800230918102F901E052FE4F808163
:100CA0008C32A1F5E9012196FE01E052FE4F8081D0
:100CB0008C3261F1409126035091270301C02196A7
:100CC000C417D50734F480818C3219F031968A32FA
:100CD000B1F78E0100521E4FF801F0801082C90159
:100CE0008F519E4F0E94CA079C01F801F082FCE2DE
:100CF000FF1629F4D0938102C093800209C08FEFC0
:100D00009FEF909381028093800202C020E030E048
:100D1000C901DF91CF911F910F91FF9008959C0120
:100D20000097D9F08A30910524F084E08093D801AF
:100D300002C01092D8018091D701882359F0809188
:100D4000BC0190E0821793070CF043C02A303105B4
:100D50000CF03FC02093DD013CC061157105C1F06E
:100D60006A30710514F085E001C081E08093D801FC
:100D70008091D701882349F08091B10190E08617D6
:100D800097073CF56A30710524F56093DC0121C0BA
:100D900041155105C1F04A30510514F086E001C0FB
:100DA00082E08093D8018091D701882349F0809117
:100DB000DB0190E08417950764F44A3051054CF448
:100DC0004093AD0106C01092DD011092DC0110923B
:100DD000AD018091D701882389F48091D9018130B8
:100DE00049F49091D8018091BB01981719F087E0E0
:100DF0008093D8018091D8018093BB013091BB01D1
:100E00003430C9F0353048F4313009F44DC0313058
:100E1000D0F0323009F0A3C079C0363009F46BC08D
:100E20003630D0F1373009F09AC0119812981398E3
:100E30001092D9010895119A129813981092DC011A
:100E40001092AD015FC01092DC011092AD0191E0F3
:100E50009093D7018091DA01882339F0813009F02D
:100E600081C01092DA01119808952091BC012F5F82
:100E70002093BC018091DD01821720F0119A90939C
:100E8000DA01089530E090E00496821793070CF0A1
:100E900069C01092BC0160C01092DD011092AD01DA
:100EA0001198129A13982EC01092DD011092AD0184
:100EB0003093D7018091AF01882339F0813009F058
:100EC00051C01092AF01129808952091B1012F5F87
:100ED0002093B1018091DC01821720F0129A3093A7
:100EE000AF01089530E090E0049682179307D4F59F
:100EF0001092B10131C011981298139A1092DD012D
:100F00001092DC0181E08093D90108951092DD01F7
:100F10001092DC0191E09093D7018091CB0188235E
:100F200031F08130F9F41092CB011398089520919B
:100F3000DB012F5F2093DB018091AD01821720F050
:100F4000139A9093CB01089530E090E004968217B5
:100F5000930744F41092DB011092D701089581E0C9
:100F60008093BB010895089508950895AA1BBB1BA3
:100F700051E107C0AA1FBB1FA617B70710F0A61B99
:100F8000B70B881F991F5A95A9F780959095BC01BA
:100F9000CD010895FC0188279927E89421912032FA
:100FA000E9F3293010F02E30C8F32B3241F02D3206
:100FB00039F4689404C00E940908820F911D2191A0
:100FC00020532A30C0F31EF4909581959F4F0895C9
:100FD000FB019F01E8944230C4F04532B4F44A303A
:100FE00029F497FB1EF4909581959F4F642F7727E6
:100FF0000E94B607805D8A330CF0895D8193CB0136
:101000000097A1F716F45DE251931082C9010C9488
:1010100027087AE0979F902D879F802D910D1124AE
:101020000895FB019F01423074F0453264F4642F4F
:1010300077270E94B607805D8A330CF0895D819323
:10104000CB010097A1F71082C9010C942708DC019D
:10105000FC01672F71917723E1F7329704C07C91EF
:101060006D9370836291AE17BF07C8F30895F8942B
:02107000FFCFB0
:00000001FF
