:100000000C944A000C9469000C9469000C946900EB
:100010000C9469000C9469000C9469000C946900BC
:100020000C9469000C9469000C9469000C946900AC
:100030000C9469000C9469000C9469000C9469009C
:100040000C94D4010C9469000C9469000C94690020
:100050000C9469000C9469000C9469000C9469007C
:100060000C9469000C94E5010C9469000C946900EF
:100070000C9469000C9469000C9469000C9469005C
:100080000C948D000C9469000C94C3000C946900CE
:100090000C94690011241FBECFEFD0E1DEBFCDBFAD
:1000A00011E0A0E0B1E0EAE1FFE000E00BBF02C038
:1000B00007900D92A030B107D9F713E0A0E0B1E0AE
:1000C00001C01D92A732B107E1F70E94D3040C943E
:1000D0008B070C940000E9ECF0E088E1808310923B
:1000E000CD0080E18093CC0086E08093CA008081BF
:1000F0008068808310925501109254011092020181
:10010000109201011092A9011092A80110925701BA
:10011000109256011092530108951F920F920FB63C
:100120000F920BB60F9211248F939F93EF93FF932F
:1001300080915401909155010196909355018093BF
:1001400054018035910521F410925501109254010B
:10015000E0915401F09155018091010190910201CB
:10016000E817F90729F08091CE00ED5FFE4F8083FC
:10017000FF91EF919F918F910F900BBE0F900FBE4B
:100180000F901F9018951F920F920FB60F920BB6FB
:100190000F9211242F933F938F939F93EF93FF938D
:1001A00020915601309157018091A8019091A901A9
:1001B00082179307B9F0C901019690935701809374
:1001C00056018035910521F4109257011092560185
:1001D000E0915601F0915701E85AFE4F80818093DB
:1001E000CE0007C08091C9008F7B8093C900109218
:1001F0005301FF91EF919F918F913F912F910F901C
:100200000BBE0F900FBE0F901F90189520915601B6
:10021000309157018091A8019091A901821793070D
:10022000F1F081E0809353018091C9008064809354
:10023000C900C901019690935701809356018035FA
:10024000910521F41092570110925601E091560148
:10025000F0915701E85AFE4F80818093CE000895B7
:10026000282F8091A8019091A90101969093A9014E
:100270008093A8018035910521F41092A901109274
:10028000A801E091A801F091A901809156019091F7
:100290005701E817F90719F0E85AFE4F20838091BB
:1002A0005301882311F40E9406010895982F80912C
:1002B000C80085FFFCCF9093CE000895DC0129C0D3
:1002C0008091A8019091A90101969093A901809332
:1002D000A8018035910521F41092A9011092A8017E
:1002E000E091A801F091A9018091560190915701E8
:1002F000E817F90729F0E85AFE4F8D91808309C06D
:100300001092A9011092A801109257011092560163
:1003100003C08C918823A1F680915301882311F4A6
:100320000E94060108958091C8008074089540E0FD
:100330002091540130915501809101019091020169
:100340002817390709F041E0842F089580910101B1
:1003500090910201019690930201809301018035F2
:10036000910521F41092020110920101E091010126
:10037000F0910201ED5FFE4F8081089502C08091EF
:10038000CE008091C80087FDFACF08951092BB017E
:100390001092AB011092AA0182E080936E008BE074
:1003A00084BD89EF87BD08951F920F920FB60F92FB
:1003B00011248F938091BB018F5F8093BB018F913C
:1003C0000F900FBE0F901F9018951F920F920FB6AF
:1003D0000F920BB60F9211242F933F934F938F934D
:1003E0009F93EF93FF93E091C801F0E02091780094
:1003F00040917900942F80E030E0822B932BEE0F18
:10040000FF1FEE52FE4F918380838091C8018F5F62
:100410008093C8018091C801833010F01092C80108
:10042000E091C801F0E0E653FE4F80818064809344
:100430007C0080917A00806480937A00FF91EF9134
:100440009F918F914F913F912F910F900BBE0F90E5
:100450000FBE0F901F9018958FE081B912B80895C4
:100460008091DD01882351F08A30F8F49091DA010F
:10047000992331F09130F1F41092DA011198089536
:100480002091BC012F5F2093BC01821728F0119AA4
:1004900081E08093DA01089530E090E004968217BD
:1004A000930744F41092BC0108958A3011F4119A14
:1004B0000895119808958091DC01882351F08A30C5
:1004C000F8F49091B001992331F09130F1F4109249
:1004D000B001129808952091B2012F5F2093B201CC
:1004E000821728F0129A81E08093B001089530E0DD
:1004F00090E004968217930744F41092B201089595
:100500008A3011F4129A0895129808958091AE01DC
:10051000882351F08A30F8F49091C901992331F081
:100520009130F1F41092C901139808952091DB01E4
:100530002F5F2093DB01821728F0139A81E08093CC
:10054000C901089530E090E004968217930744F4BF
:100550001092DB0108958A3011F4139A08951398CC
:1005600008951092C8011092CA0181E08093CB01D6
:1005700082E08093CC01AAE7B0E080E88C938C9174
:1005800087608C938C9188608C93E091C801F0E037
:10059000E653FE4F8081806480937C008C91806460
:1005A0008C9308958091D101882379F42091C20120
:1005B0003091C3018091C6019091C7012817390776
:1005C00098F481E08093D1010895813069F42091FD
:1005D000C2013091C3018091C6019091C7012817D3
:1005E000390710F01092D10108958091B10188234C
:1005F00031F08130D1F41092B101769A08952091B2
:10060000B8012F5F2093B8018091B701821728F0BD
:10061000769881E08093B101089530E090E00496EF
:100620008217930714F41092B80108956E9A1092ED
:10063000B80181E08093B7011092B101089589B1AA
:1006400080788093AF0108955F9A89B18078809314
:10065000AF0108958091D101813021F485E080932C
:10066000BD0138C08091D8019091D901039730F035
:1006700084E08093BD011092DE0107C08091DE010D
:10068000882359F483E08093BD018AE08093DD01E3
:100690001092DC011092AE011DC0809181029091F8
:1006A0008202892B41F082E08093BD011092820288
:1006B000109281020FC081E08093BD018091C4013E
:1006C0008093DD018091BE018093DC018091C001A7
:1006D0008093AE018091BD018093B701089584B7E6
:1006E00014BE843089F0853028F4813041F08230A6
:1006F000A1F408C0883051F0803179F40BC0109219
:100700000001089581E003C082E001C083E080938E
:100710000001089584E080930001089587E090E04F
:1007200090932403809323038091BD0190E00E9465
:100730008A058091C2019091C3010E948A0580912F
:10074000DD0190E00E948A058091DC0190E00E942A
:100750008A058091AE0190E00E948A058091230372
:1007600090912403019790932403809323030E9484
:100770002F0508958091AA019091AB010196909365
:10078000AB018093AA018051974221F41092AB01F2
:100790001092AA012091AA013091AB01C9016AE02F
:1007A00070E00E940A07892B09F040C0A895C90192
:1007B00064E670E00E940A07892BF1F48091B90188
:1007C0009091BA01892B51F08091D8019091D90173
:1007D00001969093D9018093D80104C01092D90159
:1007E0001092D8018091D2019091D3019093C301CE
:1007F0008093C2010E942A038091AA019091AB01CB
:1008000068EC70E00E940A07892B81F489B1807836
:100810008093AF010E94F5020E9430020E945B02A9
:100820000E9486020E94D2020E948E030895809147
:10083000DF01803509F061C08091E001863409F064
:100840005CC08091E1018C3409F057C08091E201D5
:10085000833589F48091E301803571F585E090E07E
:100860009093800280937F020E94BE069093C701FE
:100870008093C6010895833409F03FC08091E3015D
:100880008035D9F585E090E09093800280937F02D7
:100890000E94BE069093AD018093AC0180917F02CF
:1008A000909180028F5F9F4F41F10E94BE0690930E
:1008B000BA018093B90108958C34F9F485E090E091
:1008C0009093800280937F021092D9011092D801F8
:1008D0000E94BE069093C5018093C4010E94BE068B
:1008E0009093BF018093BE010E94BE069093C10108
:1008F0008093C00181E08093DE0108951F930E94E0
:10090000AD068FEF9FEF9093D9018093D80184E2D9
:100910008093830280E58093840286E4809385023D
:100920008CE48093860213E51093870280938802FB
:100930009CE29093890282E380938A0290938B02D7
:1009400081E380938C0290938D0280938E0290932A
:100950008F0280910001805D809390028EE090E094
:1009600090932403809323030E942F051093870202
:1009700084E58093880287E090E09093240380933D
:1009800023031092B3011092B4011092B50110929A
:10099000B6011092CD011092CE011092CF011092AB
:1009A000D0011F9108950E946F031092BB01109215
:1009B000AB011092AA0182E080936E008BE084BDAF
:1009C00089EF87BD6E9A1092B80181E08093B701DC
:1009D0001092B1015F9A89B180788093AF018FE066
:1009E00081B912B80E94B1020E946B0084E190E0CC
:1009F0009093AD018093AC0181E090E09093BA01B7
:100A00008093B90183E090E09093D9018093D8015D
:100A100084E690E09093C7018093C6011092D101C3
:100A20000E942A03789428E088E190E00FB6F894B9
:100A3000A895809360000FBE209360000E947E0402
:100A40008091BB01882341F08091BB01815080934C
:100A5000BB010E94BA03F4CF0E94CC05F1CF809174
:100A6000230390912403FC01ED57FD4F2AE22083DC
:100A7000BC016F5F7F4F709324036093230321E0D9
:100A800030E040E0DC0107C0F901ED57FD4F808107
:100A900048272F5F3F4F2A173B07B4F36D577D4F11
:100AA000842F90E040E150E00E946507809123038D
:100AB000909124039C012E5F3F4FFC01ED57FD4FA9
:100AC000A9014D575D4F08C09081892F815686300E
:100AD00010F4905290833196E417F507A9F7F901C5
:100AE000ED57FD4F8DE08083C9010196FC01ED5764
:100AF000FD4F2AE020830196FC01ED57FD4F108247
:100B00000196909324038093230383E892E00E944C
:100B10005E01089560912303709124036D577D4F0A
:100B20004AE050E00E943C072091230330912403C7
:100B3000F901ED57FD4FA90181912F5F3F4F8823A8
:100B4000D1F7FA01ED57FD4F8CE2808330932403F7
:100B500020932303089560912303709124036D571C
:100B60007D4F4AE050E00E943C07209123033091E2
:100B70002403F901ED57FD4FA90181912F5F3F4FEC
:100B80008823D1F7FA01ED57FD4F8CE28083309333
:100B90002403209323030895CF93DF93CFEFDFEF58
:100BA00098C00E94A601282F8432A9F480912503C1
:100BB000909126038F5F9F4F49F080918102909121
:100BC0008202019690938202809381021092260302
:100BD000109225037EC08D3019F08A3009F058C07C
:100BE000A0912503B0912603A430B1050CF44BC0AD
:100BF000A930B105ECF1FD01E452FE4F80818A324B
:100C000009F06DC0EFEDF1E090E09D0124523E4F00
:100C100002C081919827E217F307D9F7FD01E3524B
:100C2000FE4FE081EA3318F48E2F80530BC0E73477
:100C300018F48E2F875306C0E73610F080E002C00C
:100C40008E2F8755A252BE4FEC91EA3310F4E05339
:100C500009C0E73410F4E75305C0E73610F0E0E0D0
:100C600001C0E7558295807F8E2B981719F437C005
:100C70001697ACF580918102909182020196909333
:100C8000820280938102D0932603C093250321C062
:100C900080912503909126033FEF8F3F9307C9F082
:100CA000FC01E152FE4F208301969093260380932E
:100CB0002503803A910569F4D0932603C093250358
:100CC000809181029091820201969093820280939A
:100CD00081020E949701882309F063CF03C00E941C
:100CE0001704D1CFDF91CF910895CF93DF938091F7
:100CF0002503909126031816190664F584E20E94D4
:100D0000300185E40E94300185E40E94300185E4D1
:100D10000E94300185E40E94300185E40E94300188
:100D20008CE20E943001C0E0D0E007C0FE01E15239
:100D3000FE4F80810E943001219680912503909181
:100D40002603C817D90794F38DE00E9430018AE08A
:100D50000E943001DF91CF9108958FEF9FEF909324
:100D600026038093250310928202109281028DE067
:100D70000E9430018AE00E9430010895FF920F9393
:100D80001F93CF93DF9320917F0230918002F9016E
:100D9000E152FE4F80818C32A1F5E9012196FE01DE
:100DA000E152FE4F80818C3261F1409125035091D8
:100DB000260301C02196C417D50734F480818C32F4
:100DC00019F031968A32B1F78E0101521E4FF801A7
:100DD000F0801082C90180529E4F0E941E079C0124
:100DE000F801F082FCE2FF1629F4D0938002C09350
:100DF0007F0209C08FEF9FEF9093800280937F0264
:100E000002C020E030E0C901DF91CF911F910F9126
:100E1000FF900895AA1BBB1B51E107C0AA1FBB1F6F
:100E2000A617B70710F0A61BB70B881F991F5A9576
:100E3000A9F780959095BC01CD010895FC01882704
:100E40009927E89421912032E9F3293010F02E30CF
:100E5000C8F32B3241F02D3239F4689404C00E945B
:100E60005D07820F911D219120532A30C0F31EF49B
:100E7000909581959F4F0895FB019F01E894423022
:100E8000C4F04532B4F44A3029F497FB1EF490952F
:100E900081959F4F642F77270E940A07805D8A33D0
:100EA0000CF0895D8193CB010097A1F716F45DE208
:100EB00051931082C9010C947B077AE0979F902D83
:100EC000879F802D910D11240895FB019F014230D1
:100ED00074F0453264F4642F77270E940A07805D1E
:100EE0008A330CF0895D8193CB010097A1F71082C2
:100EF000C9010C947B07DC01FC01672F71917723FA
:100F0000E1F7329704C07C916D9370836291AE17C4
:0A0F1000BF07C8F30895F894FFCF5F
:00000001FF
