:100000000C944A000C9469000C9469000C946900EB
:100010000C9469000C9469000C9469000C946900BC
:100020000C9469000C9469000C9469000C946900AC
:100030000C9469000C9469000C9469000C9469009C
:100040000C94D4010C9469000C9469000C94690020
:100050000C9469000C9469000C9469000C9469007C
:100060000C9469000C94E5010C9469000C946900EF
:100070000C9469000C9469000C9469000C9469005C
:100080000C948D000C9469000C94C3000C946900CE
:100090000C94690011241FBECFEFD0E1DEBFCDBFAD
:1000A00011E0A0E0B1E0E6E7F0E100E00BBF02C044
:1000B00007900D92A030B107D9F713E0A0E0B1E0AE
:1000C00001C01D92AE32B107E1F70E945D040C94AD
:1000D00039080C940000E9ECF0E088E1808310928C
:1000E000CD0080E18093CC0086E08093CA008081BF
:1000F0008068808310925501109254011092020181
:10010000109201011092A9011092A80110925701BA
:10011000109256011092530108951F920F920FB63C
:100120000F920BB60F9211248F939F93EF93FF932F
:1001300080915401909155010196909355018093BF
:1001400054018035910521F410925501109254010B
:10015000E0915401F09155018091010190910201CB
:10016000E817F90729F08091CE00ED5FFE4F8083FC
:10017000FF91EF919F918F910F900BBE0F900FBE4B
:100180000F901F9018951F920F920FB60F920BB6FB
:100190000F9211242F933F938F939F93EF93FF938D
:1001A00020915601309157018091A8019091A901A9
:1001B00082179307B9F0C901019690935701809374
:1001C00056018035910521F4109257011092560185
:1001D000E0915601F0915701E85AFE4F80818093DB
:1001E000CE0007C08091C9008F7B8093C900109218
:1001F0005301FF91EF919F918F913F912F910F901C
:100200000BBE0F900FBE0F901F90189520915601B6
:10021000309157018091A8019091A901821793070D
:10022000F1F081E0809353018091C9008064809354
:10023000C900C901019690935701809356018035FA
:10024000910521F41092570110925601E091560148
:10025000F0915701E85AFE4F80818093CE000895B7
:10026000282F8091A8019091A90101969093A9014E
:100270008093A8018035910521F41092A901109274
:10028000A801E091A801F091A901809156019091F7
:100290005701E817F90719F0E85AFE4F20838091BB
:1002A0005301882311F40E9406010895982F80912C
:1002B000C80085FFFCCF9093CE000895DC0129C0D3
:1002C0008091A8019091A90101969093A901809332
:1002D000A8018035910521F41092A9011092A8017E
:1002E000E091A801F091A9018091560190915701E8
:1002F000E817F90729F0E85AFE4F8D91808309C06D
:100300001092A9011092A801109257011092560163
:1003100003C08C918823A1F680915301882311F4A6
:100320000E94060108958091C8008074089540E0FD
:100330002091540130915501809101019091020169
:100340002817390709F041E0842F089580910101B1
:1003500090910201019690930201809301018035F2
:10036000910521F41092020110920101E091010126
:10037000F0910201ED5FFE4F8081089502C08091EF
:10038000CE008091C80087FDFACF08951092BC017D
:100390001092AC011092AB0182E080936E008BE072
:1003A00084BD89EF87BD08951F920F920FB60F92FB
:1003B00011248F938091BC018F5F8093BC018F913A
:1003C0000F900FBE0F901F9018951F920F920FB6AF
:1003D0000F920BB60F9211242F933F934F938F934D
:1003E0009F93EF93FF93E091CA01F0E02091780092
:1003F00040917900942F80E030E0822B932BEE0F18
:10040000FF1FEB52FE4F918380838091CA018F5F63
:100410008093CA018091CA01833010F01092CA0102
:10042000E091CA01F0E0E453FE4F80818064809344
:100430007C0080917A00806480937A00FF91EF9134
:100440009F918F914F913F912F910F900BBE0F90E5
:100450000FBE0F901F9018958FE081B912B80895C4
:100460001092CA011092CC0181E08093CD0182E00C
:100470008093CE01AAE7B0E080E88C938C918760EE
:100480008C938C9188608C93E091CA01F0E0E453E6
:10049000FE4F8081806480937C008C9180648C937B
:1004A00008958091D401882379F42091C40130917A
:1004B000C5018091C8019091C9012817390798F4A6
:1004C00081E08093D4010895813069F42091C401C2
:1004D0003091C5018091C8019091C9012817390751
:1004E00010F01092D40108958091B201882331F068
:1004F0008130D1F41092B201769A08952091B90119
:100500002F5F2093B9018091B801821728F0769867
:1005100081E08093B201089530E090E00496821764
:10052000930714F41092B90108956E9A1092B901CC
:1005300081E08093B8011092B201089580B180B13A
:1005400080788093B0010895169A179A80B180B18F
:1005500080788093B00108958091D401813021F496
:1005600085E08093BF013AC08091DB019091DC016E
:10057000039740F0069903C084E08093BF01109276
:10058000E40107C08091E401882359F483E080935B
:10059000BF018AE08093E5011092AA011092D30175
:1005A0001DC08091880290918902892B41F082E0E0
:1005B0008093BF0110928902109288020FC081E0DF
:1005C0008093BF018091C6018093E5018091C001B5
:1005D0008093AA018091C2018093D3018091BF01D1
:1005E0008093B801089584B714BE843089F08530B3
:1005F00028F4813041F08230A1F408C0883051F0F5
:10060000803179F40BC010920001089581E003C09D
:1006100082E001C083E080930001089584E080932C
:100620000001089587E090E090932B0380932A03C4
:100630008091BF0190E00E9411058091C4019091CA
:10064000C5010E9411058091E30190E00E9411050F
:100650008091E20190E00E9411058091AF0190E04D
:100660000E94110580912A0390912B03019790938A
:100670002B0380932A030E94B60408958091AB0156
:100680009091AC0101969093AC018093AB018051A5
:10069000974221F41092AC011092AB012091AB0172
:1006A0003091AC01C9016AE070E00E94B807892B63
:1006B00009F046C0A895C90164E670E00E94B80739
:1006C000892BF1F48091BA019091BB01892B51F0F3
:1006D0008091DB019091DC0101969093DC01809385
:1006E000DB0104C01092DC011092DB018091D50186
:1006F0009091D6019093C5018093C4010E94AC02F1
:100700008091AB019091AC0168EC70E00E94B80759
:10071000892BB1F480B180B180788093B0010E94C0
:1007200074026091AA014091D3018091E50190E0AB
:1007300070E050E00E9491060E9451020E94120354
:1007400008958091E601803509F061C08091E7014C
:10075000863409F05CC08091E8018C3409F057C000
:100760008091E901833589F48091EA01803571F542
:1007700085E090E090938702809386020E94450670
:100780009093C9018093C8010895833409F03FC054
:100790008091EA018035D9F585E090E09093870259
:1007A000809386020E9445069093AE018093AD012E
:1007B00080918602909187028F5F9F4F41F10E9446
:1007C00045069093BB018093BA0108958C34F9F4E7
:1007D00085E090E090938702809386021092DC017E
:1007E0001092DB010E9445069093C7018093C601D9
:1007F0000E9445069093C1018093C0010E94450666
:100800009093C3018093C20181E08093E401089535
:100810001F930E9434068FEF9FEF9093DC0180932B
:10082000DB0184E280938A0280E580938B0286E478
:1008300080938C028CE480938D0213E510938E02DA
:1008400080938F029CE29093900222E32093910286
:100850009093920281E38093930290939402209369
:1008600095029093960280910001805D809397029B
:100870008EE090E090932B0380932A030E94B604AD
:1008800010938E0284E580938F0287E090E090932E
:100890002B0380932A031092B4011092B501109299
:1008A000B6011092B7011092CF011092D0011092B0
:1008B000D1011092D2011F9108950E94F30210926B
:1008C000BC011092AC011092AB0182E080936E00EB
:1008D0008BE084BD89EF87BD6E9A1092B90181E0EB
:1008E0008093B8011092B2010E94A4028FE081B9F6
:1008F00012B80E9430020E946B0084E190E0909355
:10090000AE018093AD0181E090E09093BB018093B4
:10091000BA0183E090E09093DC018093DB0184E6F0
:1009200090E09093C9018093C8011092D4010E9475
:10093000AC02789428E088E190E00FB6F894A8958E
:10094000809360000FBE209360000E940804809195
:10095000BC01882341F08091BC0181508093BC018F
:100960000E943E03F4CF0E945305F1CF80912A03E9
:1009700090912B03FC01E657FD4F2AE22083BC0136
:100980006F5F7F4F70932B0360932A0321E030E069
:1009900040E0DC0107C0F901E657FD4F80814827A0
:1009A0002F5F3F4F2A173B07B4F366577D4F842FC5
:1009B00090E040E150E00E94130880912A0390915A
:1009C0002B039C012E5F3F4FFC01E657FD4FA90111
:1009D00046575D4F08C09081892F8156863010F4AC
:1009E000905290833196E417F507A9F7F901E6577D
:1009F000FD4F8DE08083C9010196FC01E657FD4F54
:100A00002AE020830196FC01E657FD4F10820196F3
:100A100090932B0380932A038AE892E00E945E0160
:100A2000089560912A0370912B0366577D4F4AE029
:100A300050E00E94EA0720912A0330912B03F9012C
:100A4000E657FD4FA90181912F5F3F4F8823D1F7D2
:100A5000FA01E657FD4F8CE2808330932B032093FD
:100A60002A03089560912A0370912B0366577D4FE6
:100A70004AE050E00E94EA0720912A0330912B03BC
:100A8000F901E657FD4FA90181912F5F3F4F882360
:100A9000D1F7FA01E657FD4F8CE2808330932B03A8
:100AA00020932A030895CF93DF93CFEFDFEF98C011
:100AB0000E94A601282F8432A9F480912C039091E2
:100AC0002D038F5F9F4F49F080918802909189029A
:100AD0000196909389028093880210922D031092C0
:100AE0002C037EC08D3019F08A3009F058C0A091D7
:100AF0002C03B0912D03A430B1050CF44BC0A930E8
:100B0000B105ECF1FD01ED51FE4F80818A3209F013
:100B10006DC0E6EEF1E090E09D012D513E4F02C028
:100B200081919827E217F307D9F7FD01EC51FE4FA9
:100B3000E081EA3318F48E2F80530BC0E73418F4A9
:100B40008E2F875306C0E73610F080E002C08E2F4C
:100B50008755AB51BE4FEC91EA3310F4E05309C016
:100B6000E73410F4E75305C0E73610F0E0E001C0C9
:100B7000E7558295807F8E2B981719F437C016970A
:100B8000ACF5809188029091890201969093890238
:100B900080938802D0932D03C0932C0321C08091B1
:100BA0002C0390912D033FEF8F3F9307C9F0FC0179
:100BB000EA51FE4F2083019690932D0380932C03DE
:100BC000803A910569F4D0932D03C0932C03809152
:100BD00088029091890201969093890280938802FD
:100BE0000E949701882309F063CF03C00E94A103EC
:100BF000D1CFDF91CF910895CF93DF9380912C03D4
:100C000090912D031816190664F584E20E943001B4
:100C100085E40E94300185E40E94300185E40E9451
:100C2000300185E40E94300185E40E9430018CE2AD
:100C30000E943001C0E0D0E007C0FE01EA51FE4F43
:100C400080810E943001219680912C0390912D0388
:100C5000C817D90794F38DE00E9430018AE00E9402
:100C60003001DF91CF9108958FEF9FEF90932D0387
:100C700080932C0310928902109288028DE00E94CA
:100C800030018AE00E9430010895FF920F931F9374
:100C9000CF93DF932091860230918702F901EA51C8
:100CA000FE4F80818C32A1F5E9012196FE01EA51C7
:100CB000FE4F80818C3261F140912C0350912D03C5
:100CC00001C02196C417D50734F480818C3219F005
:100CD00031968A32B1F78E010A511E4FF801F08029
:100CE0001082C90189519E4F0E94CC079C01F801D6
:100CF000F082FCE2FF1629F4D0938702C0938602AB
:100D000009C08FEF9FEF909387028093860202C005
:100D100020E030E0C901DF91CF911F910F91FF904A
:100D200008959C010097D9F08A30910524F084E061
:100D30008093DE0102C01092DE018091DD018823E4
:100D400059F08091BE0190E0821793070CF043C0E8
:100D50002A3031050CF03FC02093E3013CC06115FF
:100D60007105C1F06A30710514F085E001C081E0C1
:100D70008093DE018091DD01882349F08091B301E9
:100D800090E0861797073CF56A30710524F560936B
:100D9000E20121C041155105C1F04A30510514F05E
:100DA00086E001C082E08093DE018091DD0188232E
:100DB00049F08091E10190E08417950764F44A308E
:100DC00051054CF44093AF0106C01092E30110921C
:100DD000E2011092AF018091DD01882389F48091B6
:100DE000DF01813049F49091DE018091BD019817B7
:100DF00019F087E08093DE018091DE018093BD01D0
:100E00003091BD013430C9F0353048F4313009F447
:100E10004DC03130D0F0323009F0A3C079C0363047
:100E200009F46BC03630D0F1373009F09AC0119810
:100E3000129813981092DF010895119A129813983E
:100E40001092E2011092AF015FC01092E201109285
:100E5000AF0191E09093DD018091E001882339F0AA
:100E6000813009F081C01092E0011198089520911D
:100E7000BE012F5F2093BE018091E301821720F015
:100E8000119A9093E001089530E090E00496821763
:100E900093070CF069C01092BE0160C01092E3018C
:100EA0001092AF011198129A13982EC01092E3017C
:100EB0001092AF013093DD018091B101882339F0A8
:100EC000813009F051C01092B1011298089520911B
:100ED000B3012F5F2093B3018091E201821720F0CC
:100EE000129A3093B101089530E090E00496821791
:100EF0009307D4F51092B30131C011981298139A48
:100F00001092E3011092E20181E08093DF010895E5
:100F10001092E3011092E20191E09093DD01809143
:100F2000CB01882331F08130F9F41092CB01139872
:100F300008952091E1012F5F2093E1018091AF019D
:100F4000821720F0139A9093CB01089530E090E03F
:100F500004968217930744F41092E1011092DD0188
:100F6000089581E08093BD0108950895089508953E
:100F7000AA1BBB1B51E107C0AA1FBB1FA617B707BF
:100F800010F0A61BB70B881F991F5A95A9F78095DB
:100F90009095BC01CD010895FC0188279927E8941C
:100FA00021912032E9F3293010F02E30C8F32B3292
:100FB00041F02D3239F4689404C00E940B08820F6E
:100FC000911D219120532A30C0F31EF490958195F4
:100FD0009F4F0895FB019F01E8944230C4F04532D1
:100FE000B4F44A3029F497FB1EF4909581959F4FF5
:100FF000642F77270E94B807805D8A330CF0895DE3
:101000008193CB010097A1F716F45DE25193108212
:10101000C9010C9429087AE0979F902D879F802D15
:10102000910D11240895FB019F01423074F0453267
:1010300064F4642F77270E94B807805D8A330CF030
:10104000895D8193CB010097A1F71082C9010C94AF
:101050002908DC01FC01672F71917723E1F73297B2
:1010600004C07C916D9370836291AE17BF07C8F383
:061070000895F894FFCF83
:00000001FF
